{
  "contractName": "AntProver",
  "abi": [
    {
      "inputs": [],
      "payable": false,
      "stateMutability": "nonpayable",
      "type": "constructor"
    },
    {
      "anonymous": false,
      "inputs": [
        {
          "indexed": true,
          "internalType": "address",
          "name": "from",
          "type": "address"
        },
        {
          "indexed": true,
          "internalType": "bytes32",
          "name": "hash",
          "type": "bytes32"
        },
        {
          "indexed": false,
          "internalType": "string",
          "name": "comment",
          "type": "string"
        }
      ],
      "name": "HashAdded",
      "type": "event"
    },
    {
      "constant": false,
      "inputs": [
        {
          "internalType": "bytes32",
          "name": "hash",
          "type": "bytes32"
        },
        {
          "internalType": "string",
          "name": "comment",
          "type": "string"
        }
      ],
      "name": "addDocHash",
      "outputs": [],
      "payable": false,
      "stateMutability": "nonpayable",
      "type": "function"
    },
    {
      "constant": true,
      "inputs": [
        {
          "internalType": "bytes32",
          "name": "hash",
          "type": "bytes32"
        }
      ],
      "name": "findDocHash",
      "outputs": [
        {
          "internalType": "uint256",
          "name": "",
          "type": "uint256"
        },
        {
          "internalType": "uint256",
          "name": "",
          "type": "uint256"
        },
        {
          "internalType": "address",
          "name": "",
          "type": "address"
        },
        {
          "internalType": "string",
          "name": "",
          "type": "string"
        }
      ],
      "payable": false,
      "stateMutability": "view",
      "type": "function"
    },
    {
      "constant": true,
      "inputs": [],
      "name": "size",
      "outputs": [
        {
          "internalType": "uint256",
          "name": "",
          "type": "uint256"
        }
      ],
      "payable": false,
      "stateMutability": "view",
      "type": "function"
    },
    {
      "constant": true,
      "inputs": [],
      "name": "list",
      "outputs": [
        {
          "internalType": "bytes32[]",
          "name": "",
          "type": "bytes32[]"
        }
      ],
      "payable": false,
      "stateMutability": "view",
      "type": "function"
    },
    {
      "constant": true,
      "inputs": [
        {
          "internalType": "address",
          "name": "from",
          "type": "address"
        }
      ],
      "name": "listBySender",
      "outputs": [
        {
          "internalType": "bytes32[]",
          "name": "",
          "type": "bytes32[]"
        }
      ],
      "payable": false,
      "stateMutability": "view",
      "type": "function"
    },
    {
      "constant": true,
      "inputs": [
        {
          "internalType": "bytes32",
          "name": "hash",
          "type": "bytes32"
        }
      ],
      "name": "exists",
      "outputs": [
        {
          "internalType": "bool",
          "name": "",
          "type": "bool"
        }
      ],
      "payable": false,
      "stateMutability": "view",
      "type": "function"
    }
  ],
  "bytecode": "0x608060405234801561001057600080fd5b506109a2806100206000396000f3fe608060405234801561001057600080fd5b50600436106100625760003560e01c80630f560cd71461006757806338a699a4146100c65780634cf00d3f1461010c578063949d225d146101f4578063bf3ccf4814610212578063d907934e146102d7575b600080fd5b61006f610370565b6040518080602001828103825283818151815260200191508051906020019060200280838360005b838110156100b2578082015181840152602081019050610097565b505050509050019250505060405180910390f35b6100f2600480360360208110156100dc57600080fd5b81019080803590602001909291905050506103c8565b604051808215151515815260200191505060405180910390f35b6101386004803603602081101561012257600080fd5b81019080803590602001909291905050506103eb565b604051808581526020018481526020018373ffffffffffffffffffffffffffffffffffffffff1673ffffffffffffffffffffffffffffffffffffffff16815260200180602001828103825283818151815260200191508051906020019080838360005b838110156101b657808201518184015260208101905061019b565b50505050905090810190601f1680156101e35780820380516001836020036101000a031916815260200191505b509550505050505060405180910390f35b6101fc61054d565b6040518082815260200191505060405180910390f35b6102d56004803603604081101561022857600080fd5b81019080803590602001909291908035906020019064010000000081111561024f57600080fd5b82018360208201111561026157600080fd5b8035906020019184600183028401116401000000008311171561028357600080fd5b91908080601f016020809104026020016040519081016040528093929190818152602001838380828437600081840152601f19601f820116905080830192505050505050509192919290505050610559565b005b610319600480360360208110156102ed57600080fd5b81019080803573ffffffffffffffffffffffffffffffffffffffff1690602001909291905050506107f3565b6040518080602001828103825283818151815260200191508051906020019060200280838360005b8381101561035c578082015181840152602081019050610341565b505050509050019250505060405180910390f35b606060008054806020026020016040519081016040528092919081815260200182805480156103be57602002820191906000526020600020905b8154815260200190600101908083116103aa575b5050505050905090565b600080600160008481526020019081526020016000206001015414159050919050565b600080600060606103fa61088a565b6001600087815260200190815260200160002060405180608001604052908160008201548152602001600182015481526020016002820160009054906101000a900473ffffffffffffffffffffffffffffffffffffffff1673ffffffffffffffffffffffffffffffffffffffff1673ffffffffffffffffffffffffffffffffffffffff168152602001600382018054600181600116156101000203166002900480601f01602080910402602001604051908101604052809291908181526020018280546001816001161561010002031660029004801561051b5780601f106104f05761010080835404028352916020019161051b565b820191906000526020600020905b8154815290600101906020018083116104fe57829003601f168201915b505050505081525050905080600001518160200151826040015183606001518090509450945094509450509193509193565b60008080549050905090565b610562826103c8565b156105d5576040517f08c379a000000000000000000000000000000000000000000000000000000000815260040180806020018281038252600b8152602001807f686173682065786973747300000000000000000000000000000000000000000081525060200191505060405180910390fd5b6105dd61088a565b60405180608001604052804281526020014381526020013373ffffffffffffffffffffffffffffffffffffffff1681526020018381525090508060016000858152602001908152602001600020600082015181600001556020820151816001015560408201518160020160006101000a81548173ffffffffffffffffffffffffffffffffffffffff021916908373ffffffffffffffffffffffffffffffffffffffff16021790555060608201518160030190805190602001906106a19291906108c8565b509050506000839080600181540180825580915050906001820390600052602060002001600090919290919091505550600260003373ffffffffffffffffffffffffffffffffffffffff1673ffffffffffffffffffffffffffffffffffffffff168152602001908152602001600020839080600181540180825580915050906001820390600052602060002001600090919290919091505550823373ffffffffffffffffffffffffffffffffffffffff167f058c9dee01ef8827547c446af7e63c3b44b4f13c18d675069b4a64245e0babcb846040518080602001828103825283818151815260200191508051906020019080838360005b838110156107b4578082015181840152602081019050610799565b50505050905090810190601f1680156107e15780820380516001836020036101000a031916815260200191505b509250505060405180910390a3505050565b6060600260008373ffffffffffffffffffffffffffffffffffffffff1673ffffffffffffffffffffffffffffffffffffffff16815260200190815260200160002080548060200260200160405190810160405280929190818152602001828054801561087e57602002820191906000526020600020905b81548152602001906001019080831161086a575b50505050509050919050565b60405180608001604052806000815260200160008152602001600073ffffffffffffffffffffffffffffffffffffffff168152602001606081525090565b828054600181600116156101000203166002900490600052602060002090601f016020900481019282601f1061090957805160ff1916838001178555610937565b82800160010185558215610937579182015b8281111561093657825182559160200191906001019061091b565b5b5090506109449190610948565b5090565b61096a91905b8082111561096657600081600090555060010161094e565b5090565b9056fea265627a7a72315820df7e9fadcc76042e03f0da6f9727266bc4def5092f341da3da3f7fb71fddccca64736f6c63430005100032",
  "source": "pragma solidity ^0.5.0;\n\ncontract AntProver {\n\n  struct Record {\n    uint mineTime;\n    uint blockNumber;\n    address sender;\n    string comment;\n  }\n\n  event HashAdded(\n    address indexed from,\n    bytes32 indexed hash,\n    string comment\n  );\n\n  bytes32[] private hashes;\n  mapping (bytes32 => Record) private hashesMetadata;\n  mapping (address => bytes32[]) private hashesBySender;\n\n  constructor() public {}\n\n  function addDocHash (bytes32 hash, string memory comment) public {\n    // Keep old values\n    require(!exists(hash), 'hash exists');\n    Record memory newRecord = Record(now, block.number, msg.sender, comment);\n    hashesMetadata[hash] = newRecord;\n    hashes.push(hash);\n    hashesBySender[msg.sender].push(hash);\n    // Event\n    emit HashAdded(msg.sender, hash, comment);\n  }\n\n  function findDocHash (bytes32 hash) public view returns(uint, uint, address, string memory) {\n    Record memory rec = hashesMetadata[hash];\n    return (rec.mineTime, rec.blockNumber, rec.sender, rec.comment);\n  }\n\n  function size () public view returns(uint) {\n    return hashes.length;\n  }\n\n  function list () public view returns(bytes32[] memory) {\n    return hashes;\n  }\n  function listBySender (address from) public view returns(bytes32[] memory) {\n    return hashesBySender[from];\n  }\n\n  function exists (bytes32 hash) public view returns(bool) {\n    return hashesMetadata[hash].blockNumber!=0;\n  }\n\n}",
  "sourcePath": "/home/cva/projets/atolcd/blckchn-ant-prover/smart-contracts/contracts/AntProver.sol",
  "compiler": {
    "name": "solc",
    "version": "0.5.16+commit.9c3226ce.Emscripten.clang"
  },
  "schemaVersion": "3.4.0",
  "updatedAt": "2021-04-28T09:30:28.164Z",
  "networkType": "ethereum",
  "devdoc": {
    "methods": {}
  },
  "userdoc": {
    "methods": {}
  }
}